{
  "_format": "hh-sol-artifact-1",
  "contractName": "PYUSDStaking",
  "sourceName": "contracts/core/PYUSDStaking.sol",
  "abi": [
    {
      "inputs": [
        {
          "internalType": "address",
          "name": "_pyusdToken",
          "type": "address"
        },
        {
          "internalType": "address",
          "name": "_platformWallet",
          "type": "address"
        }
      ],
      "stateMutability": "nonpayable",
      "type": "constructor"
    },
    {
      "inputs": [],
      "name": "ReentrancyGuardReentrantCall",
      "type": "error"
    },
    {
      "anonymous": false,
      "inputs": [
        {
          "indexed": false,
          "internalType": "uint256",
          "name": "newFee",
          "type": "uint256"
        }
      ],
      "name": "FeeUpdated",
      "type": "event"
    },
    {
      "anonymous": false,
      "inputs": [
        {
          "indexed": true,
          "internalType": "address",
          "name": "to",
          "type": "address"
        },
        {
          "indexed": false,
          "internalType": "uint256",
          "name": "amount",
          "type": "uint256"
        }
      ],
      "name": "FeesWithdrawn",
      "type": "event"
    },
    {
      "anonymous": false,
      "inputs": [
        {
          "indexed": true,
          "internalType": "uint256",
          "name": "gameId",
          "type": "uint256"
        },
        {
          "indexed": true,
          "internalType": "address",
          "name": "player1",
          "type": "address"
        },
        {
          "indexed": true,
          "internalType": "address",
          "name": "player2",
          "type": "address"
        }
      ],
      "name": "GameCreated",
      "type": "event"
    },
    {
      "anonymous": false,
      "inputs": [
        {
          "indexed": true,
          "internalType": "uint256",
          "name": "gameId",
          "type": "uint256"
        },
        {
          "indexed": false,
          "internalType": "uint256",
          "name": "totalPot",
          "type": "uint256"
        }
      ],
      "name": "GameStarted",
      "type": "event"
    },
    {
      "anonymous": false,
      "inputs": [
        {
          "indexed": true,
          "internalType": "uint256",
          "name": "gameId",
          "type": "uint256"
        },
        {
          "indexed": true,
          "internalType": "address",
          "name": "player",
          "type": "address"
        },
        {
          "indexed": false,
          "internalType": "uint256",
          "name": "amount",
          "type": "uint256"
        }
      ],
      "name": "PlayerStaked",
      "type": "event"
    },
    {
      "anonymous": false,
      "inputs": [
        {
          "indexed": true,
          "internalType": "uint256",
          "name": "gameId",
          "type": "uint256"
        },
        {
          "indexed": false,
          "internalType": "uint256",
          "name": "player1Refund",
          "type": "uint256"
        },
        {
          "indexed": false,
          "internalType": "uint256",
          "name": "player2Refund",
          "type": "uint256"
        }
      ],
      "name": "TieRefunded",
      "type": "event"
    },
    {
      "anonymous": false,
      "inputs": [
        {
          "indexed": true,
          "internalType": "uint256",
          "name": "gameId",
          "type": "uint256"
        },
        {
          "indexed": true,
          "internalType": "address",
          "name": "winner",
          "type": "address"
        },
        {
          "indexed": false,
          "internalType": "uint256",
          "name": "amount",
          "type": "uint256"
        }
      ],
      "name": "WinnerPaid",
      "type": "event"
    },
    {
      "inputs": [],
      "name": "MIN_STAKE",
      "outputs": [
        {
          "internalType": "uint256",
          "name": "",
          "type": "uint256"
        }
      ],
      "stateMutability": "view",
      "type": "function"
    },
    {
      "inputs": [],
      "name": "accumulatedFees",
      "outputs": [
        {
          "internalType": "uint256",
          "name": "",
          "type": "uint256"
        }
      ],
      "stateMutability": "view",
      "type": "function"
    },
    {
      "inputs": [
        {
          "internalType": "address",
          "name": "player2",
          "type": "address"
        }
      ],
      "name": "createGame",
      "outputs": [
        {
          "internalType": "uint256",
          "name": "",
          "type": "uint256"
        }
      ],
      "stateMutability": "nonpayable",
      "type": "function"
    },
    {
      "inputs": [
        {
          "internalType": "uint256",
          "name": "gameId",
          "type": "uint256"
        }
      ],
      "name": "declareTie",
      "outputs": [],
      "stateMutability": "nonpayable",
      "type": "function"
    },
    {
      "inputs": [
        {
          "internalType": "uint256",
          "name": "gameId",
          "type": "uint256"
        },
        {
          "internalType": "address",
          "name": "winnerAddress",
          "type": "address"
        }
      ],
      "name": "declareWinner",
      "outputs": [],
      "stateMutability": "nonpayable",
      "type": "function"
    },
    {
      "inputs": [],
      "name": "gameCounter",
      "outputs": [
        {
          "internalType": "uint256",
          "name": "",
          "type": "uint256"
        }
      ],
      "stateMutability": "view",
      "type": "function"
    },
    {
      "inputs": [
        {
          "internalType": "uint256",
          "name": "",
          "type": "uint256"
        }
      ],
      "name": "games",
      "outputs": [
        {
          "internalType": "address",
          "name": "player1",
          "type": "address"
        },
        {
          "internalType": "address",
          "name": "player2",
          "type": "address"
        },
        {
          "internalType": "uint256",
          "name": "player1Stake",
          "type": "uint256"
        },
        {
          "internalType": "uint256",
          "name": "player2Stake",
          "type": "uint256"
        },
        {
          "internalType": "uint256",
          "name": "totalPot",
          "type": "uint256"
        },
        {
          "internalType": "bool",
          "name": "player1Staked",
          "type": "bool"
        },
        {
          "internalType": "bool",
          "name": "player2Staked",
          "type": "bool"
        },
        {
          "internalType": "bool",
          "name": "gameStarted",
          "type": "bool"
        },
        {
          "internalType": "bool",
          "name": "gameEnded",
          "type": "bool"
        },
        {
          "internalType": "address",
          "name": "winner",
          "type": "address"
        },
        {
          "internalType": "bool",
          "name": "isTie",
          "type": "bool"
        }
      ],
      "stateMutability": "view",
      "type": "function"
    },
    {
      "inputs": [
        {
          "internalType": "uint256",
          "name": "gameId",
          "type": "uint256"
        }
      ],
      "name": "getGameDetails",
      "outputs": [
        {
          "internalType": "address",
          "name": "player1",
          "type": "address"
        },
        {
          "internalType": "address",
          "name": "player2",
          "type": "address"
        },
        {
          "internalType": "uint256",
          "name": "player1Stake",
          "type": "uint256"
        },
        {
          "internalType": "uint256",
          "name": "player2Stake",
          "type": "uint256"
        },
        {
          "internalType": "uint256",
          "name": "totalPot",
          "type": "uint256"
        },
        {
          "internalType": "bool",
          "name": "gameStarted",
          "type": "bool"
        },
        {
          "internalType": "bool",
          "name": "gameEnded",
          "type": "bool"
        },
        {
          "internalType": "address",
          "name": "winner",
          "type": "address"
        },
        {
          "internalType": "bool",
          "name": "isTie",
          "type": "bool"
        }
      ],
      "stateMutability": "view",
      "type": "function"
    },
    {
      "inputs": [
        {
          "internalType": "uint256",
          "name": "gameId",
          "type": "uint256"
        }
      ],
      "name": "isGameReady",
      "outputs": [
        {
          "internalType": "bool",
          "name": "",
          "type": "bool"
        }
      ],
      "stateMutability": "view",
      "type": "function"
    },
    {
      "inputs": [],
      "name": "platformFee",
      "outputs": [
        {
          "internalType": "uint256",
          "name": "",
          "type": "uint256"
        }
      ],
      "stateMutability": "view",
      "type": "function"
    },
    {
      "inputs": [],
      "name": "platformWallet",
      "outputs": [
        {
          "internalType": "address",
          "name": "",
          "type": "address"
        }
      ],
      "stateMutability": "view",
      "type": "function"
    },
    {
      "inputs": [],
      "name": "pyusdToken",
      "outputs": [
        {
          "internalType": "contract IERC20",
          "name": "",
          "type": "address"
        }
      ],
      "stateMutability": "view",
      "type": "function"
    },
    {
      "inputs": [
        {
          "internalType": "uint256",
          "name": "gameId",
          "type": "uint256"
        },
        {
          "internalType": "uint256",
          "name": "amount",
          "type": "uint256"
        }
      ],
      "name": "stake",
      "outputs": [],
      "stateMutability": "nonpayable",
      "type": "function"
    },
    {
      "inputs": [
        {
          "internalType": "uint256",
          "name": "newFee",
          "type": "uint256"
        }
      ],
      "name": "updateFee",
      "outputs": [],
      "stateMutability": "nonpayable",
      "type": "function"
    },
    {
      "inputs": [],
      "name": "withdrawFees",
      "outputs": [],
      "stateMutability": "nonpayable",
      "type": "function"
    }
  ],
  "bytecode": "0x608060405260196004553480156200001657600080fd5b50604051620016f4380380620016f4833981016040819052620000399162000141565b60016000556001600160a01b0382166200009a5760405162461bcd60e51b815260206004820152601560248201527f496e76616c69642050595553442061646472657373000000000000000000000060448201526064015b60405180910390fd5b6001600160a01b038116620000f25760405162461bcd60e51b815260206004820152601760248201527f496e76616c696420706c6174666f726d2077616c6c6574000000000000000000604482015260640162000091565b600180546001600160a01b039384166001600160a01b0319918216179091556005805492909316911617905562000179565b80516001600160a01b03811681146200013c57600080fd5b919050565b600080604083850312156200015557600080fd5b620001608362000124565b9150620001706020840162000124565b90509250929050565b61156b80620001896000396000f3fe608060405234801561001057600080fd5b50600436106100f55760003560e01c8063476343ee11610097578063917630091161006657806391763009146103ca578063cb1c2b5c146103f5578063e374b097146103ff578063fa2af9da1461041257600080fd5b8063476343ee14610393578063587f5ed71461039b5780637b0472f0146103a45780639012c4a8146103b757600080fd5b80632b08b6de116100d35780632b08b6de1461033f5780632e0be39a146103625780633fd0e1ff1461036b578063474d0b5a1461038057600080fd5b8063117a5b90146100fa5780631b31abda146101ed57806326232a2e14610328575b600080fd5b6101806101083660046113e1565b60026020819052600091825260409091208054600182015492820154600383015460048401546005909401546001600160a01b0393841695841694929391929160ff80831692610100810482169262010000820483169263010000008304811692640100000000810490921691600160c01b9004168b565b604080516001600160a01b039c8d1681529a8c1660208c01528a01989098526060890196909652608088019490945291151560a0870152151560c0860152151560e08501521515610100840152909216610120820152901515610140820152610160015b60405180910390f35b6102d16101fb3660046113e1565b60009081526002602081815260409283902083516101608101855281546001600160a01b03908116808352600184015482169483018590529483015495820186905260038301546060830181905260048401546080840181905260059094015460ff808216151560a08601526101008083048216151560c08701526201000083048216151560e08701819052630100000084048316151591870182905264010000000084049095166101208701819052600160c01b90930490911615156101409095018590529698959796919592939192909190565b604080516001600160a01b039a8b168152988a1660208a015288019690965260608701949094526080860192909252151560a0850152151560c084015290921660e0820152901515610100820152610120016101e4565b61033160045481565b6040519081526020016101e4565b61035261034d3660046113e1565b610425565b60405190151581526020016101e4565b61033160035481565b61037e6103793660046113e1565b6104fd565b005b61033161038e366004611416565b6107a7565b61037e610a8d565b61033160065481565b61037e6103b2366004611431565b610c48565b61037e6103c53660046113e1565b61103a565b6001546103dd906001600160a01b031681565b6040516001600160a01b0390911681526020016101e4565b610331620f424081565b61037e61040d366004611453565b611119565b6005546103dd906001600160a01b031681565b600081815260026020818152604080842081516101608101835281546001600160a01b0390811682526001830154811694820194909452938101549184019190915260038101546060840152600481015460808401526005015460ff80821615801560a086018190526101008085048416151560c08801526201000085048416151560e08801526301000000850484161515908701526401000000008404909416610120860152600160c01b9092041615156101408401526104e857508060c001515b80156104f657508060e00151155b9392505050565b6105056113b7565b6000818152600260205260409020600581015462010000900460ff166105655760405162461bcd60e51b815260206004820152601060248201526f11d85b59481b9bdd081cdd185c9d195960821b60448201526064015b60405180910390fd5b60058101546301000000900460ff16156105b65760405162461bcd60e51b815260206004820152601260248201527111d85b5948185b1c9958591e48195b99195960721b604482015260640161055c565b60058101805463ff00000060ff60c01b0119166301000000600160c01b011790556001548154600283015460405163a9059cbb60e01b81526001600160a01b039283166004820152602481019190915291169063a9059cbb906044016020604051808303816000875af1158015610631573d6000803e3d6000fd5b505050506040513d601f19601f82011682018060405250810190610655919061147f565b6106915760405162461bcd60e51b815260206004820152600d60248201526c1499599d5b990819985a5b1959609a1b604482015260640161055c565b6001805490820154600383015460405163a9059cbb60e01b81526001600160a01b039283166004820152602481019190915291169063a9059cbb906044016020604051808303816000875af11580156106ee573d6000803e3d6000fd5b505050506040513d601f19601f82011682018060405250810190610712919061147f565b61074e5760405162461bcd60e51b815260206004820152600d60248201526c1499599d5b990819985a5b1959609a1b604482015260640161055c565b817fe023b9b4e47177035faafe206c246c4d951456a777cc4176becb164c22eaa3eb82600201548360030154604051610791929190918252602082015260400190565b60405180910390a2506107a46001600055565b50565b60006001600160a01b0382166107ff5760405162461bcd60e51b815260206004820152601760248201527f496e76616c696420706c61796572322061646472657373000000000000000000604482015260640161055c565b336001600160a01b038316036108575760405162461bcd60e51b815260206004820152601c60248201527f43616e6e6f7420706c617920616761696e737420796f757273656c6600000000604482015260640161055c565b6003805460009182610868836114b7565b919050559050604051806101600160405280336001600160a01b03168152602001846001600160a01b0316815260200160008152602001600081526020016000815260200160001515815260200160001515815260200160001515815260200160001515815260200160006001600160a01b03168152602001600015158152506002600083815260200190815260200160002060008201518160000160006101000a8154816001600160a01b0302191690836001600160a01b0316021790555060208201518160010160006101000a8154816001600160a01b0302191690836001600160a01b0316021790555060408201518160020155606082015181600301556080820151816004015560a08201518160050160006101000a81548160ff02191690831515021790555060c08201518160050160016101000a81548160ff02191690831515021790555060e08201518160050160026101000a81548160ff0219169083151502179055506101008201518160050160036101000a81548160ff0219169083151502179055506101208201518160050160046101000a8154816001600160a01b0302191690836001600160a01b031602179055506101408201518160050160186101000a81548160ff021916908315150217905550905050826001600160a01b0316336001600160a01b0316827f8946648bc1dbc670d3f07e2c4de91731227b6d4ccc53b8ab1e951e84d960577e60405160405180910390a492915050565b610a956113b7565b6005546001600160a01b03163314610aef5760405162461bcd60e51b815260206004820152601a60248201527f4f6e6c7920706c6174666f726d2063616e207769746864726177000000000000604482015260640161055c565b600060065411610b375760405162461bcd60e51b81526020600482015260136024820152724e6f206665657320746f20776974686472617760681b604482015260640161055c565b60068054600090915560015460055460405163a9059cbb60e01b81526001600160a01b0391821660048201526024810184905291169063a9059cbb906044016020604051808303816000875af1158015610b95573d6000803e3d6000fd5b505050506040513d601f19601f82011682018060405250810190610bb9919061147f565b610bf95760405162461bcd60e51b815260206004820152601160248201527015da5d1a191c985dd85b0819985a5b1959607a1b604482015260640161055c565b6005546040518281526001600160a01b03909116907fc0819c13be868895eb93e40eaceb96de976442fa1d404e5c55f14bb65a8c489a9060200160405180910390a250610c466001600055565b565b610c506113b7565b60008281526002602052604090205482906001600160a01b0316331480610c9057506000818152600260205260409020600101546001600160a01b031633145b610cdc5760405162461bcd60e51b815260206004820152601960248201527f4e6f74206120706c6179657220696e20746869732067616d6500000000000000604482015260640161055c565b6000838152600260205260409020600581015462010000900460ff1615610d3c5760405162461bcd60e51b815260206004820152601460248201527311d85b5948185b1c9958591e481cdd185c9d195960621b604482015260640161055c565b60058101546301000000900460ff1615610d895760405162461bcd60e51b815260206004820152600e60248201526d11d85b59481a185cc8195b99195960921b604482015260640161055c565b620f4240831015610dd25760405162461bcd60e51b81526020600482015260136024820152725374616b652062656c6f77206d696e696d756d60681b604482015260640161055c565b80546001600160a01b031633148015610e4657600582015460ff1615610e2b5760405162461bcd60e51b815260206004820152600e60248201526d105b1c9958591e481cdd185ad95960921b604482015260640161055c565b6002820184905560058201805460ff19166001179055610eaa565b6005820154610100900460ff1615610e915760405162461bcd60e51b815260206004820152600e60248201526d105b1c9958591e481cdd185ad95960921b604482015260640161055c565b6003820184905560058201805461ff0019166101001790555b6001546040516323b872dd60e01b8152336004820152306024820152604481018690526001600160a01b03909116906323b872dd906064016020604051808303816000875af1158015610f01573d6000803e3d6000fd5b505050506040513d601f19601f82011682018060405250810190610f25919061147f565b610f635760405162461bcd60e51b815260206004820152600f60248201526e151c985b9cd9995c8819985a5b1959608a1b604482015260640161055c565b83826004016000828254610f7791906114d0565b9091555050604051848152339086907fad9c14bb299924761435331fdd9f48eea04ef05c05f8e1d78b12b8df809c073d9060200160405180910390a3600582015460ff168015610fd057506005820154610100900460ff165b156110295760058201805462ff0000191662010000179055600482015460405186917fa2dfaa3573b86004ec9d4d4abe5068d942579c59da4da8cd0d9e45e71a393bc19161102091815260200190565b60405180910390a25b5050506110366001600055565b5050565b6005546001600160a01b031633146110945760405162461bcd60e51b815260206004820152601c60248201527f4f6e6c7920706c6174666f726d2063616e207570646174652066656500000000604482015260640161055c565b6101f48111156110de5760405162461bcd60e51b815260206004820152601560248201527446656520746f6f206869676820286d61782035252960581b604482015260640161055c565b60048190556040518181527f8c4d35e54a3f2ef1134138fd8ea3daee6a3c89e10d2665996babdf70261e2c769060200160405180910390a150565b6111216113b7565b6000828152600260205260409020600581015462010000900460ff1661117c5760405162461bcd60e51b815260206004820152601060248201526f11d85b59481b9bdd081cdd185c9d195960821b604482015260640161055c565b60058101546301000000900460ff16156111cd5760405162461bcd60e51b815260206004820152601260248201527111d85b5948185b1c9958591e48195b99195960721b604482015260640161055c565b80546001600160a01b03838116911614806111f7575060018101546001600160a01b038381169116145b6112345760405162461bcd60e51b815260206004820152600e60248201526d24b73b30b634b2103bb4b73732b960911b604482015260640161055c565b6005810180546001600160a01b038416640100000000026301000000600160c01b031990911617630100000017905560048054908201546000916127109161127c91906114e9565b6112869190611500565b9050600081836004015461129a9190611522565b905081600660008282546112ae91906114d0565b909155505060015460405163a9059cbb60e01b81526001600160a01b038681166004830152602482018490529091169063a9059cbb906044016020604051808303816000875af1158015611306573d6000803e3d6000fd5b505050506040513d601f19601f8201168201806040525081019061132a919061147f565b6113665760405162461bcd60e51b815260206004820152600d60248201526c14185e5bdd5d0819985a5b1959609a1b604482015260640161055c565b836001600160a01b0316857f193bd1cc19fc3ccd521c9900b99068933fe83e08c84234beddf1f09c9727fafd836040516113a291815260200190565b60405180910390a35050506110366001600055565b6002600054036113da57604051633ee5aeb560e01b815260040160405180910390fd5b6002600055565b6000602082840312156113f357600080fd5b5035919050565b80356001600160a01b038116811461141157600080fd5b919050565b60006020828403121561142857600080fd5b6104f6826113fa565b6000806040838503121561144457600080fd5b50508035926020909101359150565b6000806040838503121561146657600080fd5b82359150611476602084016113fa565b90509250929050565b60006020828403121561149157600080fd5b815180151581146104f657600080fd5b634e487b7160e01b600052601160045260246000fd5b6000600182016114c9576114c96114a1565b5060010190565b808201808211156114e3576114e36114a1565b92915050565b80820281158282048414176114e3576114e36114a1565b60008261151d57634e487b7160e01b600052601260045260246000fd5b500490565b818103818111156114e3576114e36114a156fea264697066735822122078dae460adafa1cc13004ebd42e60aabe319ebb51354852d3a9f13cad89b167264736f6c63430008140033",
  "linkReferences": {},
  "deployedLinkReferences": {}
}